{
  "contractName": "Casino",
  "abi": [
    {
      "inputs": [],
      "payable": false,
      "stateMutability": "nonpayable",
      "type": "constructor"
    },
    {
      "constant": false,
      "inputs": [],
      "name": "joinGame",
      "outputs": [],
      "payable": false,
      "stateMutability": "nonpayable",
      "type": "function"
    },
    {
      "constant": false,
      "inputs": [],
      "name": "startGame",
      "outputs": [],
      "payable": false,
      "stateMutability": "nonpayable",
      "type": "function"
    },
    {
      "constant": false,
      "inputs": [],
      "name": "paySmallBlind",
      "outputs": [],
      "payable": true,
      "stateMutability": "payable",
      "type": "function"
    },
    {
      "constant": false,
      "inputs": [],
      "name": "payBigBlind",
      "outputs": [],
      "payable": true,
      "stateMutability": "payable",
      "type": "function"
    }
  ],
  "bytecode": "0x60606040526000600360006101000a81548160ff0219169083151502179055506000600455600060055560006006556000603b60006101000a81548160ff0219169083151502179055506000603b60016101000a81548160ff021916908315150217905550341561006f57600080fd5b336000806101000a81548173ffffffffffffffffffffffffffffffffffffffff021916908373ffffffffffffffffffffffffffffffffffffffff1602179055506105eb806100be6000396000f300606060405260043610610062576000357c0100000000000000000000000000000000000000000000000000000000900463ffffffff168063997931b914610067578063bb4adecf14610071578063d4f77b1c1461007b578063d65ab5f214610090575b600080fd5b61006f6100a5565b005b610079610175565b005b341561008657600080fd5b61008e610233565b005b341561009b57600080fd5b6100a3610325565b005b600180805490506001600454018115156100bb57fe5b068154811015156100c857fe5b906000526020600020900160009054906101000a900473ffffffffffffffffffffffffffffffffffffffff1673ffffffffffffffffffffffffffffffffffffffff163373ffffffffffffffffffffffffffffffffffffffff1614151561012d57600080fd5b60008060065414151561013f57600080fd5b66071afd498d000080341015151561015657600080fd5b6001603b60016101000a81548160ff0219169083151502179055505050565b600160045481548110151561018657fe5b906000526020600020900160009054906101000a900473ffffffffffffffffffffffffffffffffffffffff1673ffffffffffffffffffffffffffffffffffffffff163373ffffffffffffffffffffffffffffffffffffffff161415156101eb57600080fd5b6000806006541415156101fd57600080fd5b66038d7ea4c6800080341015151561021457600080fd5b6001603b60006101000a81548160ff0219169083151502179055505050565b600660018054905011806102535750600360009054906101000a900460ff165b1561025d57600080fd5b600180548060010182816102719190610505565b9160005260206000209001600033909190916101000a81548173ffffffffffffffffffffffffffffffffffffffff021916908373ffffffffffffffffffffffffffffffffffffffff16021790555050600280548060010182816102d49190610505565b9160005260206000209001600033909190916101000a81548173ffffffffffffffffffffffffffffffffffffffff021916908373ffffffffffffffffffffffffffffffffffffffff16021790555050565b6000809054906101000a900473ffffffffffffffffffffffffffffffffffffffff1673ffffffffffffffffffffffffffffffffffffffff163373ffffffffffffffffffffffffffffffffffffffff1614151561038057600080fd5b600260018054905010806103a05750600360009054906101000a900460ff165b156103aa57600080fd5b6001600360006101000a81548160ff02191690831515021790555060006006819055506103d561040f565b6001805490506001600454018115156103ea57fe5b0660048190555060018054905060026004540181151561040657fe5b06600581905550565b610417610531565b60008090505b603481101561044b5780828260348110151561043557fe5b602002018181525050808060010191505061041d565b61045482610469565b600790603461046492919061055a565b505050565b610471610531565b600080600080600160340393505b60008411156104f95760019250600184018302915085846034811015156104a257fe5b6020020151905085826034811015156104b757fe5b602002015186856034811015156104ca57fe5b6020020181815250508086836034811015156104e257fe5b60200201818152505083806001900394505061047f565b85945050505050919050565b81548183558181151161052c5781836000526020600020918201910161052b919061059a565b5b505050565b610680604051908101604052806034905b60008152602001906001900390816105425790505090565b8260348101928215610589579160200282015b8281111561058857825182559160200191906001019061056d565b5b509050610596919061059a565b5090565b6105bc91905b808211156105b85760008160009055506001016105a0565b5090565b905600a165627a7a7230582086a441ba52727a1a700d4826d0cd56f67eecaba43ed09edf29a20c5e7f879daf0029",
  "source": "pragma solidity ^0.4.19;\n\ncontract Casino {\n  // Player information\n  address private owner;\n  address[] private players;\n  address[] private currentPlayers;\n\n  // Game parameters\n  uint constant minPlayers = 2;\n  uint constant maxPlayers = 6;\n  uint constant smallBlindCost = 1 finney;\n  uint constant bigBlindCost = 2 finney; // 1000 finney = 1 eth\n\n  // State variables\n  bool private playing = false;\n  uint private smallBlind = 0; // Index of player paying small blind\n  uint private currentPlayer = 0; // Index of player currently betting\n  uint private round = 0;\n  uint[52] private deck;\n  bool private smallBlindPayed = false;\n  bool private bigBlindPayed = false;\n\n  function Casino() public {\n    owner = msg.sender;\n  }\n\n  modifier onlyOwner() {\n    require(msg.sender == owner);\n    _;\n  }\n\n  modifier onlySmallBlind() {\n    require(msg.sender == players[smallBlind]);\n    _;\n  }\n\n  modifier onlyBigBlind() {\n    require(msg.sender == players[(smallBlind+1)%players.length]);\n    _;\n  }\n\n  modifier onlyOnceBlindsPayed() {\n    require(smallBlindPayed && bigBlindPayed);\n    _;\n  }\n\n  modifier onlyRound(uint n) {\n    require(round == n);\n    _;\n  }\n\n  modifier costs(uint price) {\n    require(msg.value >= price);\n    _;\n  }\n\n  // Allows a player to request to join the game\n  // Could add a cost, paid to the owner\n  function joinGame() public {\n    if (players.length > maxPlayers || playing)\n      revert();\n\n    players.push(msg.sender);\n    currentPlayers.push(msg.sender);\n  }\n\n  // Leave game functionality?\n\n  // Start the game. Only the owner can start the game\n  function startGame() public onlyOwner {\n    if (players.length < minPlayers || playing)\n      revert();\n\n    playing = true;\n    round = 0;\n\n    shuffleCards();\n    smallBlind = (smallBlind + 1) % players.length;\n    currentPlayer = (smallBlind + 2) % players.length;\n  }\n\n  // 0: blinds, dealing, initial bets\n  // 1: flop dealt, another round of betting\n  // 2: turn card dealt, another round of betting\n  // 3: river card dealt, final round of betting\n  // 4: showdown: cards revealed & pot distributed ... blinds rotated\n\n  // Load a deck of cards & shuffle it\n  function shuffleCards() private {\n    uint[52] memory cards;\n    for(uint i = 0; i < 52; i++)\n      cards[i] = i;\n\n    deck = shuffle(cards);\n  }\n\n  function shuffle(uint[52] cards) private pure returns (uint[52]) {\n    for (var i = cards.length - 1; i > 0; i--) {\n      uint random_number = 1;\n      // Old implementation: uint(block.blockhash(block.number-1))%10 + 1;\n      // To be refined.\n\n      uint j = random_number * (i + 1);\n      uint temp = cards[i];\n      cards[i] = cards[j];\n      cards[j] = temp;\n    }\n\n    return cards;\n  }\n\n  function paySmallBlind() public payable\n  onlySmallBlind onlyRound(0) costs(smallBlindCost) {\n\n    smallBlindPayed = true;\n  }\n\n  function payBigBlind() public payable\n  onlyBigBlind onlyRound(0) costs(bigBlindCost) {\n\n    bigBlindPayed = true;\n  }\n\n  // can use a mapping to store a bet\n  // can use a modifier to make sure we accept bets from the right player\n}\n",
  "sourcePath": "/Users/louis/Documents/dapp-poker/contracts/Casino.sol",
  "compiler": {
    "name": "solc",
    "version": "0.4.19+commit.c4cbbb05.Emscripten.clang"
  },
  "schemaVersion": "1.0.1",
  "updatedAt": "2018-02-13T16:10:55.333Z"
}