{
  "contractName": "Casino",
  "abi": [
    {
      "constant": true,
      "inputs": [],
      "name": "owner",
      "outputs": [
        {
          "name": "",
          "type": "address"
        }
      ],
      "payable": false,
      "stateMutability": "view",
      "type": "function"
    },
    {
      "inputs": [],
      "payable": false,
      "stateMutability": "nonpayable",
      "type": "constructor"
    },
    {
      "constant": false,
      "inputs": [],
      "name": "joinGame",
      "outputs": [],
      "payable": false,
      "stateMutability": "nonpayable",
      "type": "function"
    },
    {
      "constant": false,
      "inputs": [],
      "name": "startGame",
      "outputs": [],
      "payable": false,
      "stateMutability": "nonpayable",
      "type": "function"
    },
    {
      "constant": false,
      "inputs": [],
      "name": "paySmallBlind",
      "outputs": [],
      "payable": true,
      "stateMutability": "payable",
      "type": "function"
    },
    {
      "constant": false,
      "inputs": [],
      "name": "payBigBlind",
      "outputs": [],
      "payable": true,
      "stateMutability": "payable",
      "type": "function"
    }
  ],
  "bytecode": "0x60606040526000600360006101000a81548160ff0219169083151502179055506000600455600060055560006006556000603b60006101000a81548160ff0219169083151502179055506000603b60016101000a81548160ff021916908315150217905550341561006f57600080fd5b336000806101000a81548173ffffffffffffffffffffffffffffffffffffffff021916908373ffffffffffffffffffffffffffffffffffffffff160217905550610670806100be6000396000f30060606040526004361061006d576000357c0100000000000000000000000000000000000000000000000000000000900463ffffffff1680638da5cb5b14610072578063997931b9146100c7578063bb4adecf146100d1578063d4f77b1c146100db578063d65ab5f2146100f0575b600080fd5b341561007d57600080fd5b610085610105565b604051808273ffffffffffffffffffffffffffffffffffffffff1673ffffffffffffffffffffffffffffffffffffffff16815260200191505060405180910390f35b6100cf61012a565b005b6100d96101fa565b005b34156100e657600080fd5b6100ee6102b8565b005b34156100fb57600080fd5b6101036103aa565b005b6000809054906101000a900473ffffffffffffffffffffffffffffffffffffffff1681565b6001808054905060016004540181151561014057fe5b0681548110151561014d57fe5b906000526020600020900160009054906101000a900473ffffffffffffffffffffffffffffffffffffffff1673ffffffffffffffffffffffffffffffffffffffff163373ffffffffffffffffffffffffffffffffffffffff161415156101b257600080fd5b6000806006541415156101c457600080fd5b66071afd498d00008034101515156101db57600080fd5b6001603b60016101000a81548160ff0219169083151502179055505050565b600160045481548110151561020b57fe5b906000526020600020900160009054906101000a900473ffffffffffffffffffffffffffffffffffffffff1673ffffffffffffffffffffffffffffffffffffffff163373ffffffffffffffffffffffffffffffffffffffff1614151561027057600080fd5b60008060065414151561028257600080fd5b66038d7ea4c6800080341015151561029957600080fd5b6001603b60006101000a81548160ff0219169083151502179055505050565b600660018054905011806102d85750600360009054906101000a900460ff165b156102e257600080fd5b600180548060010182816102f6919061058a565b9160005260206000209001600033909190916101000a81548173ffffffffffffffffffffffffffffffffffffffff021916908373ffffffffffffffffffffffffffffffffffffffff1602179055505060028054806001018281610359919061058a565b9160005260206000209001600033909190916101000a81548173ffffffffffffffffffffffffffffffffffffffff021916908373ffffffffffffffffffffffffffffffffffffffff16021790555050565b6000809054906101000a900473ffffffffffffffffffffffffffffffffffffffff1673ffffffffffffffffffffffffffffffffffffffff163373ffffffffffffffffffffffffffffffffffffffff1614151561040557600080fd5b600260018054905010806104255750600360009054906101000a900460ff165b1561042f57600080fd5b6001600360006101000a81548160ff021916908315150217905550600060068190555061045a610494565b60018054905060016004540181151561046f57fe5b0660048190555060018054905060026004540181151561048b57fe5b06600581905550565b61049c6105b6565b60008090505b60348110156104d0578082826034811015156104ba57fe5b60200201818152505080806001019150506104a2565b6104d9826104ee565b60079060346104e99291906105df565b505050565b6104f66105b6565b600080600080600160340393505b600084111561057e57600192506001840183029150858460348110151561052757fe5b60200201519050858260348110151561053c57fe5b6020020151868560348110151561054f57fe5b60200201818152505080868360348110151561056757fe5b602002018181525050838060019003945050610504565b85945050505050919050565b8154818355818115116105b1578183600052602060002091820191016105b0919061061f565b5b505050565b610680604051908101604052806034905b60008152602001906001900390816105c75790505090565b826034810192821561060e579160200282015b8281111561060d5782518255916020019190600101906105f2565b5b50905061061b919061061f565b5090565b61064191905b8082111561063d576000816000905550600101610625565b5090565b905600a165627a7a723058207841ad675a5e122c1c841c739ed8726edf09ef8822b703ebc5fdca2052ef954a0029",
  "source": "pragma solidity ^0.4.19;\n\ncontract Casino {\n  // Player information\n  address public owner;\n  address[] private players;\n  address[] private currentPlayers;\n\n  // Game parameters\n  uint constant minPlayers = 2;\n  uint constant maxPlayers = 6;\n  uint constant smallBlindCost = 1 finney;\n  uint constant bigBlindCost = 2 finney; // 1000 finney = 1 eth\n\n  // State variables\n  bool private playing = false;\n  uint private smallBlind = 0; // Index of player paying small blind\n  uint private currentPlayer = 0; // Index of player currently betting\n  uint private round = 0;\n  uint[52] private deck;\n  bool private smallBlindPayed = false;\n  bool private bigBlindPayed = false;\n\n  function Casino() public {\n    owner = msg.sender;\n  }\n\n  modifier onlyOwner() {\n    require(msg.sender == owner);\n    _;\n  }\n\n  modifier onlySmallBlind() {\n    require(msg.sender == players[smallBlind]);\n    _;\n  }\n\n  modifier onlyBigBlind() {\n    require(msg.sender == players[(smallBlind+1)%players.length]);\n    _;\n  }\n\n  modifier onlyOnceBlindsPayed() {\n    require(smallBlindPayed && bigBlindPayed);\n    _;\n  }\n\n  modifier onlyRound(uint n) {\n    require(round == n);\n    _;\n  }\n\n  modifier costs(uint price) {\n    require(msg.value >= price);\n    _;\n  }\n\n  // Allows a player to request to join the game\n  // Could add a cost, paid to the owner\n  function joinGame() public {\n    if (players.length > maxPlayers || playing)\n      revert();\n\n    players.push(msg.sender);\n    currentPlayers.push(msg.sender);\n  }\n\n  // Leave game functionality?\n\n  // Start the game. Only the owner can start the game\n  function startGame() public onlyOwner {\n    if (players.length < minPlayers || playing)\n      revert();\n\n    playing = true;\n    round = 0;\n\n    shuffleCards();\n    smallBlind = (smallBlind + 1) % players.length;\n    currentPlayer = (smallBlind + 2) % players.length;\n  }\n\n  // 0: blinds, dealing, initial bets\n  // 1: flop dealt, another round of betting\n  // 2: turn card dealt, another round of betting\n  // 3: river card dealt, final round of betting\n  // 4: showdown: cards revealed & pot distributed ... blinds rotated\n\n  // Load a deck of cards & shuffle it\n  function shuffleCards() private {\n    uint[52] memory cards;\n    for(uint i = 0; i < 52; i++)\n      cards[i] = i;\n\n    deck = shuffle(cards);\n  }\n\n  function shuffle(uint[52] cards) private pure returns (uint[52]) {\n    for (var i = cards.length - 1; i > 0; i--) {\n      uint random_number = 1;\n      // Old implementation: uint(block.blockhash(block.number-1))%10 + 1;\n      // To be refined.\n\n      uint j = random_number * (i + 1);\n      uint temp = cards[i];\n      cards[i] = cards[j];\n      cards[j] = temp;\n    }\n\n    return cards;\n  }\n\n  function paySmallBlind() public payable\n  onlySmallBlind onlyRound(0) costs(smallBlindCost) {\n\n    smallBlindPayed = true;\n  }\n\n  function payBigBlind() public payable\n  onlyBigBlind onlyRound(0) costs(bigBlindCost) {\n\n    bigBlindPayed = true;\n  }\n\n  // can use a mapping to store a bet\n  // can use a modifier to make sure we accept bets from the right player\n}\n",
  "sourcePath": "/Users/louis/Documents/dapp-poker/contracts/Casino.sol",
  "compiler": {
    "name": "solc",
    "version": "0.4.19+commit.c4cbbb05.Emscripten.clang"
  },
  "schemaVersion": "1.0.1",
  "updatedAt": "2018-02-23T10:29:19.276Z"
}