{
  "contractName": "Casino",
  "abi": [
    {
      "constant": false,
      "inputs": [
        {
          "name": "playerAddress",
          "type": "address"
        }
      ],
      "name": "joinGame",
      "outputs": [],
      "payable": false,
      "stateMutability": "nonpayable",
      "type": "function"
    }
  ],
  "bytecode": "0x60606040526000600160006101000a81548160ff021916908315150217905550341561002a57600080fd5b6101bd806100396000396000f300606060405260043610610041576000357c0100000000000000000000000000000000000000000000000000000000900463ffffffff1680632389a29014610046575b600080fd5b341561005157600080fd5b61007d600480803573ffffffffffffffffffffffffffffffffffffffff1690602001909190505061007f565b005b60066000805490501080156100a15750600160009054906101000a900460ff16155b1561012157600080548060010182816100ba9190610140565b9160005260206000209001600083909190916101000a81548173ffffffffffffffffffffffffffffffffffffffff021916908373ffffffffffffffffffffffffffffffffffffffff16021790555050600260008054905011156101205761011f610124565b5b5b50565b60018060006101000a81548160ff021916908315150217905550565b81548183558181151161016757818360005260206000209182019101610166919061016c565b5b505050565b61018e91905b8082111561018a576000816000905550600101610172565b5090565b905600a165627a7a72305820ab20f53d3b750aa7afb8aeb698aa1b897a7f39971999d8123f318c4d983c668e0029",
  "source": "pragma solidity ^0.4.0;\n\ncontract Casino {\n    uint constant minPlayers = 2;\n    uint constant maxPlayers = 6;\n    address[] playerAddresses;\n    bool playing = false;\n\n    function joinGame(address playerAddress) public {\n        if (playerAddresses.length < maxPlayers && !playing) {\n            playerAddresses.push(playerAddress);\n            if (playerAddresses.length > minPlayers)\n                // could add some 'vote ready' functionality to wait for more players\n                // currently will just wait till we have 2 players\n                playGame();\n        }\n    }\n\n    function playGame() private {\n        playing = true;\n    }\n}\n",
  "sourcePath": "/Users/louis/Documents/dapp-poker/contracts/Casino.sol",
  "compiler": {
    "name": "solc",
    "version": "0.4.19+commit.c4cbbb05.Emscripten.clang"
  },
  "schemaVersion": "1.0.1",
  "updatedAt": "2018-02-06T12:19:29.492Z"
}