{
  "contractName": "Casino",
  "abi": [
    {
      "constant": false,
      "inputs": [
        {
          "name": "playerAddress",
          "type": "address"
        }
      ],
      "name": "joinGame",
      "outputs": [],
      "payable": false,
      "stateMutability": "nonpayable",
      "type": "function"
    }
  ],
  "bytecode": "0x60606040526000600160006101000a81548160ff021916908315150217905550341561002a57600080fd5b6105e4806100396000396000f300606060405260043610610041576000357c0100000000000000000000000000000000000000000000000000000000900463ffffffff1680632389a29014610046575b600080fd5b341561005157600080fd5b61007d600480803573ffffffffffffffffffffffffffffffffffffffff1690602001909190505061007f565b005b60066000805490501080156100a15750600160009054906101000a900460ff16155b1561012157600080548060010182816100ba919061019d565b9160005260206000209001600083909190916101000a81548173ffffffffffffffffffffffffffffffffffffffff021916908373ffffffffffffffffffffffffffffffffffffffff16021790555050600260008054905011156101205761011f610124565b5b5b50565b60018060006101000a81548160ff0219169083151502179055506101466101c9565b604051809103906000f080151561015c57600080fd5b6001806101000a81548173ffffffffffffffffffffffffffffffffffffffff021916908373ffffffffffffffffffffffffffffffffffffffff160217905550565b8154818355818115116101c4578183600052602060002091820191016101c391906101d9565b5b505050565b6040516103ba806101ff83390190565b6101fb91905b808211156101f75760008160009055506001016101df565b5090565b9056006060604052341561000f57600080fd5b61002a61002f64010000000002610009176401000000009004565b6101dc565b61003761014e565b60008090505b603481101561006b5780828260348110151561005557fe5b602002018181525050808060010191505061003d565b6100878261009c64010000000002610063176401000000009004565b6000906034610097929190610177565b505050565b6100a461014e565b600080600080600160340393505b6000841115610142576001600a6001430340600190048115156100d157fe5b06019250600184018302915085846034811015156100eb57fe5b60200201519050858260348110151561010057fe5b6020020151868560348110151561011357fe5b60200201818152505080868360348110151561012b57fe5b6020020181815250508380600190039450506100b2565b85945050505050919050565b610680604051908101604052806034905b600081526020019060019003908161015f5790505090565b82603481019282156101a6579160200282015b828111156101a557825182559160200191906001019061018a565b5b5090506101b391906101b7565b5090565b6101d991905b808211156101d55760008160009055506001016101bd565b5090565b90565b6101cf806101eb6000396000f3006060604052600080fd5b610011610115565b60008090505b60348110156100455780828260348110151561002f57fe5b6020020181815250508080600101915050610017565b61004e82610063565b600090603461005e92919061013e565b505050565b61006b610115565b600080600080600160340393505b6000841115610109576001600a60014303406001900481151561009857fe5b06019250600184018302915085846034811015156100b257fe5b6020020151905085826034811015156100c757fe5b602002015186856034811015156100da57fe5b6020020181815250508086836034811015156100f257fe5b602002018181525050838060019003945050610079565b85945050505050919050565b610680604051908101604052806034905b60008152602001906001900390816101265790505090565b826034810192821561016d579160200282015b8281111561016c578251825591602001919060010190610151565b5b50905061017a919061017e565b5090565b6101a091905b8082111561019c576000816000905550600101610184565b5090565b905600a165627a7a723058209a1d8af41c62287d6b76653f1c619e0280eabd58b3f5517cb4dbc8dc844fbae00029a165627a7a72305820eeb3623cbf8109d3b9750eaec841e91f70cd49c3dbb3d5fa79574d94b46f4ee60029",
  "source": "pragma solidity ^0.4.19;\n\nimport \"./Dealer.sol\";\n\ncontract Casino {\n    uint constant minPlayers = 2;\n    uint constant maxPlayers = 6;\n    address[] playerAddresses;\n    bool playing = false;\n\n    Dealer dealer;\n\n    function joinGame(address playerAddress) public {\n        if (playerAddresses.length < maxPlayers && !playing) {\n            playerAddresses.push(playerAddress);\n            if (playerAddresses.length > minPlayers)\n                // Could add some 'vote ready' functionality to wait for more players.\n                // Currently will just wait till we have 2 players.\n                playGame();\n        }\n    }\n\n    function playGame() private {\n        playing = true;\n        dealer = new Dealer();\n    }\n}\n",
  "sourcePath": "/Users/louis/Documents/dapp-poker/contracts/Casino.sol",
  "compiler": {
    "name": "solc",
    "version": "0.4.19+commit.c4cbbb05.Emscripten.clang"
  },
  "schemaVersion": "1.0.1",
  "updatedAt": "2018-02-06T13:07:01.725Z"
}