{
  "contractName": "Casino",
  "abi": [
    {
      "inputs": [],
      "payable": false,
      "stateMutability": "nonpayable",
      "type": "constructor"
    },
    {
      "constant": false,
      "inputs": [],
      "name": "joinGame",
      "outputs": [],
      "payable": false,
      "stateMutability": "nonpayable",
      "type": "function"
    },
    {
      "constant": false,
      "inputs": [],
      "name": "startGame",
      "outputs": [],
      "payable": false,
      "stateMutability": "nonpayable",
      "type": "function"
    }
  ],
  "bytecode": "0x60606040526000600260006101000a81548160ff0219169083151502179055506000600355341561002f57600080fd5b336000806101000a81548173ffffffffffffffffffffffffffffffffffffffff021916908373ffffffffffffffffffffffffffffffffffffffff1602179055506103908061007e6000396000f30060606040526004361061004c576000357c0100000000000000000000000000000000000000000000000000000000900463ffffffff168063d4f77b1c14610051578063d65ab5f214610066575b600080fd5b341561005c57600080fd5b61006461007b565b005b341561007157600080fd5b61007961010a565b005b6006600180549050118061009b5750600260009054906101000a900460ff165b156100a557600080fd5b600180548060010182816100b991906102aa565b9160005260206000209001600033909190916101000a81548173ffffffffffffffffffffffffffffffffffffffff021916908373ffffffffffffffffffffffffffffffffffffffff16021790555050565b6000809054906101000a900473ffffffffffffffffffffffffffffffffffffffff1673ffffffffffffffffffffffffffffffffffffffff163373ffffffffffffffffffffffffffffffffffffffff1614151561016557600080fd5b600260018054905010806101855750600260009054906101000a900460ff165b1561018f57600080fd5b6001600260006101000a81548160ff0219169083151502179055506101b26101b4565b565b6101bc6102d6565b60008090505b60348110156101f0578082826034811015156101da57fe5b60200201818152505080806001019150506101c2565b6101f98261020e565b60049060346102099291906102ff565b505050565b6102166102d6565b600080600080600160340393505b600084111561029e57600192506001840183029150858460348110151561024757fe5b60200201519050858260348110151561025c57fe5b6020020151868560348110151561026f57fe5b60200201818152505080868360348110151561028757fe5b602002018181525050838060019003945050610224565b85945050505050919050565b8154818355818115116102d1578183600052602060002091820191016102d0919061033f565b5b505050565b610680604051908101604052806034905b60008152602001906001900390816102e75790505090565b826034810192821561032e579160200282015b8281111561032d578251825591602001919060010190610312565b5b50905061033b919061033f565b5090565b61036191905b8082111561035d576000816000905550600101610345565b5090565b905600a165627a7a72305820f3439907895959f4e5a163141be75aee9f31eab83c0a1fd15d334f48266bd2140029",
  "source": "pragma solidity ^0.4.19;\n\ncontract Casino {\n  // Player information\n  address private owner;\n  address[] private players;\n\n  // Game parameters\n  uint constant minPlayers = 2;\n  uint constant maxPlayers = 6;\n\n  // State variables\n  bool private playing = false;\n  uint private turn = 0;\n  uint[52] private deck;\n\n  function Casino() public {\n    owner = msg.sender;\n  }\n\n  modifier onlyOwner() {\n    require(msg.sender == owner);\n    _;\n  }\n\n  // Allows a player to request to join the game\n  function joinGame() public {\n    if (players.length > maxPlayers || playing)\n      revert();\n\n    players.push(msg.sender);\n  }\n\n  // Leave game functionality?\n\n  // Start the game. Only the owner can start the game\n  function startGame() public onlyOwner {\n    if (players.length < minPlayers || playing)\n      revert();\n\n    playing = true;\n    shuffleCards();\n  }\n\n  // 0: blinds, dealing, initial bets\n  // 1: flop dealt, another round of betting\n  // 2: turn card dealt, another round of betting\n  // 3: river card dealt, final round of betting\n  // 4: showdown: cards revealed & pot distributed ... blinds rotated\n\n  // Load a deck of cards & shuffle it\n  function shuffleCards() private {\n    uint[52] memory cards;\n    for(uint i = 0; i < 52; i++)\n      cards[i] = i;\n\n    deck = shuffle(cards);\n  }\n\n  function shuffle(uint[52] cards) private pure returns (uint[52]) {\n    for (var i = cards.length - 1; i > 0; i--) {\n      uint random_number = 1;\n      // Old implementation: uint(block.blockhash(block.number-1))%10 + 1;\n      // To be refined.\n\n      uint j = random_number * (i + 1);\n      uint temp = cards[i];\n      cards[i] = cards[j];\n      cards[j] = temp;\n    }\n\n    return cards;\n  }\n\n  // can use a mapping to store a bet\n  // can use a modifier to make sure we accept bets from the right player\n}\n",
  "sourcePath": "/Users/louis/Documents/dapp-poker/contracts/Casino.sol",
  "compiler": {
    "name": "solc",
    "version": "0.4.19+commit.c4cbbb05.Emscripten.clang"
  },
  "schemaVersion": "1.0.1",
  "updatedAt": "2018-02-13T14:56:05.444Z"
}